:040000000200B63212
:01000B0032C2
:0100130032BA
:01001B0032B2
:0100230032AA
:01002B0032A2
:01003300329A
:01003B003292
:0300430002026650
:100048000000E2FBEAF2802C0000E0FBEAF08024EA
:10005800E6B50202EBF62200E2B50202EBF222005C
:10006800E0B50202EBF02230F6E0A88220F5D3EAF0
:10007800C6F582228B822230F6E6A88220F5D98046
:01008800CFA8
:10010F00750F00751000E4F511F512F51375140451
:03011F0002008952
:030089000208006A
:1001220075E20043E22975E30053E2BF53D1FB7548
:10013200D18043D1012243E10443E10243E101437F
:10014200E18043D81FD2EAD2AF227E407F018EEEF9
:100152008FEF7E807F018EE48FE575EB0875D410FA
:1001620075D2127E007F018EEC8FED75EA4075DC50
:100172000222E525700122C007FFC0A243A2058525
:10018200228285238315A2E5F07006E0A5DFFC80BC
:1001920006E493A3A5DFFAD0A2D00722229000C0E2
:1001A2007416F09000C17403F0903FFAE493FFC418
:1001B200540F900C49939000C2F09000C3E4F07485
:1001C2000F5F900C49939000C4F09000C5E4F0904A
:1001D2003FFC93FFC4540F900C49939000C6F090DB
:1001E20000C7E4F0740F5F900C49939000C8F09040
:1001F20000C9E4F0903FFD93FFC4540F900C499363
:100202009000CAF09000CBE4F0740F5F900C499319
:100212009000CCF09000CDE4F0903FFE93FFC454E8
:100222000F900C49939000CEF09000CFE4F0740F41
:100232005F900C49939000D0F09000D1E4F0903F91
:10024200FF93FFC4540F900C49939000D2F090009A
:10025200D3E4F0740F5F900C49939000D4F09000B7
:10026200D5E4F022C021C0E0C0F0C082C083C00744
:10027200C006C005C004C003C002C001C000C0D097
:1002820075D00020D90302072A743F55D9FFFEBE5C
:100292000003020722BF02028043BF1002801DBF7B
:1002A20011028018BF12028013BF20030206A3BFEF
:1002B20021028018BF3002803B020728AE11AF1224
:1002C20074012EF511E43FF51202072875D300746C
:1002D200FC55D24402F5D275130002072820DE0332
:1002E20002072885DB0F75100074F355D44408F516
:1002F200D402072853DCF2AFDBBF080280030206F8
:100302007F900107E0FE7F00900106E0FD7C004F38
:10031200F508EC4EF5098F0D900101E0F50A900108
:1003220000E0FE530660BE400280030203B8750D72
:1003320001E50845097022E50A24FB500302068103
:10034200E50A75F003A490034C730206810206814C
:100352000206810206810206817405B50A02802C1A
:100362007409B50A0280367490B50A3C900104E023
:1003720025E0FE900B6D93FD900100F0EE04900BD2
:100382006D93FE900101F07F0202068190010074DC
:1003920031F09001017460F07F0202068190010247
:1003A200E0F5147F00020681900100E4F090010163
:1003B200F07F02020681900100E0FE5460600302B9
:1003C200067BE50A24F55003020677E50A75F00379
:1003D200A49003D773020659020515020677020597
:1003E200820206770204E40203F80206770204F1AD
:1003F20002050C020681900103E0FEBE0102800AA2
:10040200BE02028012BE0372801A7515ED75160BBC
:100412007517807E1280657515FF75160B7517802E
:100422007E208058900102E0700D75151F75160C24
:100432007517807E048045900102E0FDBD010D75B7
:10044200153B75160C7517807E0E8030900102E008
:10045200FDBD020D75152375160C7517807E18806B
:100462001B900102E0FDBD030D7515C075160075E8
:1004720017007E1680067EFF80027EFF8E057E00BC
:10048200C3ED9508EE950950048D088E09AD08AEAE
:1004920009C3ED9408EE9400920040047D088002A6
:1004A200AD088D07AC15AD16AE1775220075230188
:1004B2007524008F258C828D838EF0C00712017403
:1004C200D0078F06AC08AD097B00ECC39EFCED9B08
:1004D200FD8C088D09EF2515F515E43516F5160284
:1004E2000681900102E0FE8E0875090002068190E5
:1004F2000100E50CF0AD08AE09C3ED9401EE9400E5
:1005020050030206817F01020681900102E0F50C90
:10051200020681900100E0541F702F900103E0FD5C
:100522007E00900102E0FC7B004206EB4205BE0128
:1005320014BD0011900C06E493FE30E5030206811F
:100542007FFF0206817FFF020681900100E0FE53D9
:10055200061FBE0226900104E0FEBE02028005BE16
:100562008111800553D473800C74BC55D24402F5BA
:10057200D280027FFF7513000206817FFF0206818F
:10058200900100E0541F704A900103E0FD7E00904C
:100592000102E0FC7B004206EB4205BE012FBD00DA
:1005A2002C900C06E493FE30E51EE5A2FE20E7FA4D
:1005B20075A15575A1AA75A9C143870275A1557583
:1005C200A1AA75A9000206817FFF0206817FFF02B0
:1005D2000681900100E0FE53061FBE0276900103E1
:1005E200E0FD7E00900102E0FC7B004206EB42054A
:1005F200EE4D705B900105E0FD7E00900104E0FC91
:100602007B004206EB4205BE0105BD00028034BEFE
:100612000205BD00028018BE8105BD0002801ABE1F
:100622008229BD002674BF55D44403F5D48050748A
:100632007F55D4440CF5D4804674BF55D24403F59B
:10064200D2803C747F55D2440CF5D27FFF80307F3C
:10065200FF802C7FFF8028900100E4F0900101F0E0
:10066200AD08AE09C3ED9402EE940040047F02800F
:100672000EAF08800A7FFF80067FFF80027FFFBFE8
:10068200FF09750AFF75DCCF020728EF24F740083F
:100692008FDD75DCC002072875DD0075DCC002073E
:1006A200287405B50A02805C7406B50A6BAE08AF01
:1006B20009C3EE9408EF9400920040047E08800281
:1006C200AE08AC15AD16AF1775220075230175245F
:1006D200008E258C828D838FF0C006120174D006A5
:1006E2008E07AC08AD097B00ECC39FFCED9BFD8C33
:1006F200088D09EE2515F515E43516F5168EDD6320
:10070200DC408022E50D701EE5E35480FFE508FE23
:100712004FF5E375DC02800E75DD0075DC028006A4
:1007220075DD0085DCDCC2D930D81B75DC0275D2E0
:100732001275D41075E300C2DAC2D9C2D8750F009F
:10074200750C0075130010DA028023E5DAFF30E23F
:1007520020E5A2FF20E7FA75A15575A1AA75A9C1E6
:1007620043870275A15575A1AA75A900800375D8A2
:10077200FFD0D0D000D001D002D003D004D005D019
:1007820006D007D083D082D0F0D0E0D02102008CF6
:1007920085A082120B3D85F98222A2A09295A2B376
:1007A20092A0D297C297A2A19295A2B392A1D297F8
:1007B200C297A2A29295A2B392A2D297C297A2A3E3
:1007C2009295A2B392A3D297C297A2A49295A2B3F2
:1007D20092A4D297C297A2A59295A2B392A5D297BC
:1007E200C297A2A69295A2B392A6D297C297A2A7A7
:1007F2009295A2B392A7D297C29785A08222E4FFD4
:10080200FEF51BF51C209503023800C007C0061236
:100812000AB6900005120ADE12019F758200120BC1
:100822001A75FB0412012212014C120138D006D0B3
:100832000753924D4392404393F25396EB439608EB
:1008420043971CD296D2B375DD0075D30090014058
:100852007431F09001417460F075180075190075DB
:100862000E01D291E50C60FC7B00E50F6029C2AF5E
:10087200752280752300752400850F2590018075EF
:10088200F000C007C006120174D006D007D2AF53E1
:10089200D4F3AB0F750F007A00C3EA9B4003020A40
:1008A20004EA2480F582E43400F583E0F5A00AEF3F
:1008B200600302093C75FA00A2A7E433F9A2A6E498
:1008C20033FEE96010E5A0543FFF209403EE70C9A7
:1008D20075FA6080C4EE6046A2A5B39291A2A4927A
:1008E20095A2A192B2A2A09297A2A292B4A2A3921E
:1008F20094851882758300A296E433F0A8187900D3
:10090200851882758300E0FDA2B3E43325E0420539
:1009120088828983EDF0051853187F02089BA2A5EF
:10092200B39291A2A49295A2A192B2A2A09297A2EE
:10093200A292B4A2A3929402089B1FEE7003020932
:10094200E9209471851882758300A2A09295A2B3C2
:1009520092A0D297C297A2A19295A2B392A1D29746
:10096200C297A2A29295A2B392A2D297C297A2A331
:100972009295A2B392A3D297C297A2A49295A2B340
:1009820092A4D297C297A2A59295A2B392A5D2970A
:10099200C297A2A69295A2B392A6D297C297A2A7F5
:1009A2009295A2B392A7D297C297E5A0F0051853E9
:1009B200187F02089BAC187D0085A082C007C00684
:1009C200C005C004C003C002120B3DD002D003D048
:1009D20004D005D006D007A9F98C828D83E9F005F1
:1009E2001853187F02089B85A082C007C006C00367
:1009F200C002120B3DD002D003D006D007E5F902A7
:100A0200089BE5136003020866E518C39519FD30DB
:100A1200E70674802DFC80028D048C05C374808DE2
:100A2200F063F08095F0504FC3ED648094BE920164
:100A320040047C3E80028D048C1A7D00C3ED951A21
:100A420050258D040C0CEC3395E0FBEC2440FCEBC0
:100A52003401FB851982758300E08C828B83F0055B
:100A62001953197F0D80D5751301AD1A74022DF536
:100A7200D353D2FC020866E511C3951BFCE512951F
:100A82001CFDAA147B00C3EA9CEB9D501285111B2E
:100A920085121C75130175D30253D2FC020866E558
:100AA2000E7003020866150E75130175D30253D238
:040AB200FC020866D4
:100B6D000000FB090160000480E11C000002940EEE
:100B7D00A218BA120E0341006C00740065007200D9
:100B8D00610018035500530042002D0042006C0017
:100B9D0061007300740065007200120343003000A1
:100BAD0042004600410036004400370002030100B8
:100BBD0052455642000000000000000000000000F9
:100BCD000000000000000000000000000000000018
:100BDD000000000000000000000000000000B5B2A1
:100BED001201000200000008FB090160000401026F
:100BFD0003010902200001010080E1090400000247
:100C0D00FFFFFF00070581024000010705020240BA
:100C1D0000010403090418035500530042002D0080
:100C2D0042006C00610073007400650072000E03D9
:100C3D0041006C0074006500720061003031323388
:0C0C4D00343536373839414243444546BF
:100AB60075A15575A1AA74F855B94405F5B975A17E
:100AC6000022AE82AF83EE4F600D05A105A105A100
:100AD6001EBEFF011F80EF22AE82AF83EE4F601570
:100AE6009003E8C007C006120AC8D006D0071EBE8B
:100AF600FF011F80E722AE82AF8310990280FB8E32
:100B0600998E828F832210980280FBAE997F008E89
:100B1600828F8322AF82BF010375FA00BF0203757D
:100B2600FA60EF700575FC08F5FA2243FC5043FAAB
:100B360001E5F875F8FF228582F930FBFD2275F98B
:100B4600FF30FBFD85F9822275FC8075FA89539288
:100B56000F53930F228582F930FBFD2230FBFD8572
:030B6600F98222EF
:0600E500E478FFF6D8FDEF
:1000C3007900E94400601B7A00900C59780075A010
:1000D30000E493F2A308B8000205A0D9F4DAF2759C
:0200E300A0FF7C
:10008C00C000A88118C0D0B6001B18B64800401597
:10009C00B66F005010C0E0E65407B406005004E6FA
:0A00AC0054F8F6D0E0D0D0D00032B6
:1000EB007800E84400600A790075A000E4F309D8B1
:1000FB00FC7800E84400600C7900900000E4F0A369
:04010B00D8FCD9FA49
:0D00B600758125120B69E582600302008947
:040B6900758200226F
:00000001FF
